{
  "_format": "hh-sol-artifact-1",
  "contractName": "User",
  "sourceName": "contracts/User.sol",
  "abi": [
    {
      "inputs": [
        {
          "internalType": "string",
          "name": "_userName",
          "type": "string"
        },
        {
          "internalType": "string",
          "name": "_about",
          "type": "string"
        },
        {
          "internalType": "string[]",
          "name": "_socialMedia",
          "type": "string[]"
        },
        {
          "internalType": "string",
          "name": "_bynogame",
          "type": "string"
        }
      ],
      "name": "createUser",
      "outputs": [],
      "stateMutability": "nonpayable",
      "type": "function"
    },
    {
      "inputs": [],
      "name": "getUser",
      "outputs": [
        {
          "components": [
            {
              "internalType": "uint256",
              "name": "id",
              "type": "uint256"
            },
            {
              "internalType": "address",
              "name": "publicKey",
              "type": "address"
            },
            {
              "internalType": "string",
              "name": "userName",
              "type": "string"
            },
            {
              "internalType": "string",
              "name": "about",
              "type": "string"
            },
            {
              "internalType": "string[]",
              "name": "socialMedia",
              "type": "string[]"
            },
            {
              "internalType": "string",
              "name": "byNoGame",
              "type": "string"
            }
          ],
          "internalType": "struct User.MyUser[]",
          "name": "",
          "type": "tuple[]"
        }
      ],
      "stateMutability": "view",
      "type": "function"
    },
    {
      "inputs": [
        {
          "internalType": "uint256",
          "name": "",
          "type": "uint256"
        }
      ],
      "name": "users",
      "outputs": [
        {
          "internalType": "uint256",
          "name": "id",
          "type": "uint256"
        },
        {
          "internalType": "address",
          "name": "publicKey",
          "type": "address"
        },
        {
          "internalType": "string",
          "name": "userName",
          "type": "string"
        },
        {
          "internalType": "string",
          "name": "about",
          "type": "string"
        },
        {
          "internalType": "string",
          "name": "byNoGame",
          "type": "string"
        }
      ],
      "stateMutability": "view",
      "type": "function"
    }
  ],
  "bytecode": "0x608060405234801561001057600080fd5b506111b5806100206000396000f3fe608060405234801561001057600080fd5b50600436106100415760003560e01c8063365b98b2146100465780634b4e45701461007a578063832880e714610096575b600080fd5b610060600480360381019061005b9190610b44565b6100b4565b604051610071959493929190610df1565b60405180910390f35b610094600480360381019061008f9190610a6d565b6102b2565b005b61009e61042b565b6040516100ab9190610dcf565b60405180910390f35b600081815481106100c457600080fd5b90600052602060002090600602016000915090508060000154908060010160009054906101000a900473ffffffffffffffffffffffffffffffffffffffff16908060020180546101139061104e565b80601f016020809104026020016040519081016040528092919081815260200182805461013f9061104e565b801561018c5780601f106101615761010080835404028352916020019161018c565b820191906000526020600020905b81548152906001019060200180831161016f57829003601f168201915b5050505050908060030180546101a19061104e565b80601f01602080910402602001604051908101604052809291908181526020018280546101cd9061104e565b801561021a5780601f106101ef5761010080835404028352916020019161021a565b820191906000526020600020905b8154815290600101906020018083116101fd57829003601f168201915b50505050509080600501805461022f9061104e565b80601f016020809104026020016040519081016040528092919081815260200182805461025b9061104e565b80156102a85780601f1061027d576101008083540402835291602001916102a8565b820191906000526020600020905b81548152906001019060200180831161028b57829003601f168201915b5050505050905085565b6102ba610779565b60016000805490506102cc9190610f7a565b81600001818152505033816020019073ffffffffffffffffffffffffffffffffffffffff16908173ffffffffffffffffffffffffffffffffffffffff1681525050848160400181905250838160600181905250828160800181905250818160a0018190525060008190806001815401808255809150506001900390600052602060002090600602016000909190919091506000820151816000015560208201518160010160006101000a81548173ffffffffffffffffffffffffffffffffffffffff021916908373ffffffffffffffffffffffffffffffffffffffff16021790555060408201518160020190805190602001906103ca9291906107c5565b5060608201518160030190805190602001906103e79291906107c5565b50608082015181600401908051906020019061040492919061084b565b5060a08201518160050190805190602001906104219291906107c5565b5050505050505050565b60606000805480602002602001604051908101604052809291908181526020016000905b8282101561077057838290600052602060002090600602016040518060c0016040529081600082015481526020016001820160009054906101000a900473ffffffffffffffffffffffffffffffffffffffff1673ffffffffffffffffffffffffffffffffffffffff1673ffffffffffffffffffffffffffffffffffffffff1681526020016002820180546104e29061104e565b80601f016020809104026020016040519081016040528092919081815260200182805461050e9061104e565b801561055b5780601f106105305761010080835404028352916020019161055b565b820191906000526020600020905b81548152906001019060200180831161053e57829003601f168201915b505050505081526020016003820180546105749061104e565b80601f01602080910402602001604051908101604052809291908181526020018280546105a09061104e565b80156105ed5780601f106105c2576101008083540402835291602001916105ed565b820191906000526020600020905b8154815290600101906020018083116105d057829003601f168201915b5050505050815260200160048201805480602002602001604051908101604052809291908181526020016000905b828210156106c757838290600052602060002001805461063a9061104e565b80601f01602080910402602001604051908101604052809291908181526020018280546106669061104e565b80156106b35780601f10610688576101008083540402835291602001916106b3565b820191906000526020600020905b81548152906001019060200180831161069657829003601f168201915b50505050508152602001906001019061061b565b5050505081526020016005820180546106df9061104e565b80601f016020809104026020016040519081016040528092919081815260200182805461070b9061104e565b80156107585780601f1061072d57610100808354040283529160200191610758565b820191906000526020600020905b81548152906001019060200180831161073b57829003601f168201915b5050505050815250508152602001906001019061044f565b50505050905090565b6040518060c0016040528060008152602001600073ffffffffffffffffffffffffffffffffffffffff168152602001606081526020016060815260200160608152602001606081525090565b8280546107d19061104e565b90600052602060002090601f0160209004810192826107f3576000855561083a565b82601f1061080c57805160ff191683800117855561083a565b8280016001018555821561083a579182015b8281111561083957825182559160200191906001019061081e565b5b50905061084791906108ab565b5090565b82805482825590600052602060002090810192821561089a579160200282015b828111156108995782518290805190602001906108899291906107c5565b509160200191906001019061086b565b5b5090506108a791906108c8565b5090565b5b808211156108c45760008160009055506001016108ac565b5090565b5b808211156108e857600081816108df91906108ec565b506001016108c9565b5090565b5080546108f89061104e565b6000825580601f1061090a5750610929565b601f01602090049060005260206000209081019061092891906108ab565b5b50565b600061093f61093a84610e7e565b610e59565b9050808382526020820190508285602086028201111561096257610961611143565b5b60005b858110156109b057813567ffffffffffffffff8111156109885761098761113e565b5b8086016109958982610a2a565b85526020850194506020840193505050600181019050610965565b5050509392505050565b60006109cd6109c884610eaa565b610e59565b9050828152602081018484840111156109e9576109e8611148565b5b6109f484828561100c565b509392505050565b600082601f830112610a1157610a1061113e565b5b8135610a2184826020860161092c565b91505092915050565b600082601f830112610a3f57610a3e61113e565b5b8135610a4f8482602086016109ba565b91505092915050565b600081359050610a6781611168565b92915050565b60008060008060808587031215610a8757610a86611152565b5b600085013567ffffffffffffffff811115610aa557610aa461114d565b5b610ab187828801610a2a565b945050602085013567ffffffffffffffff811115610ad257610ad161114d565b5b610ade87828801610a2a565b935050604085013567ffffffffffffffff811115610aff57610afe61114d565b5b610b0b878288016109fc565b925050606085013567ffffffffffffffff811115610b2c57610b2b61114d565b5b610b3887828801610a2a565b91505092959194509250565b600060208284031215610b5a57610b59611152565b5b6000610b6884828501610a58565b91505092915050565b6000610b7d8383610ca1565b905092915050565b6000610b918383610d13565b905092915050565b610ba281610fd0565b82525050565b610bb181610fd0565b82525050565b6000610bc282610efb565b610bcc8185610f36565b935083602082028501610bde85610edb565b8060005b85811015610c1a5784840389528151610bfb8582610b71565b9450610c0683610f1c565b925060208a01995050600181019050610be2565b50829750879550505050505092915050565b6000610c3782610f06565b610c418185610f47565b935083602082028501610c5385610eeb565b8060005b85811015610c8f5784840389528151610c708582610b85565b9450610c7b83610f29565b925060208a01995050600181019050610c57565b50829750879550505050505092915050565b6000610cac82610f11565b610cb68185610f58565b9350610cc681856020860161101b565b610ccf81611157565b840191505092915050565b6000610ce582610f11565b610cef8185610f69565b9350610cff81856020860161101b565b610d0881611157565b840191505092915050565b600060c083016000830151610d2b6000860182610db1565b506020830151610d3e6020860182610b99565b5060408301518482036040860152610d568282610ca1565b91505060608301518482036060860152610d708282610ca1565b91505060808301518482036080860152610d8a8282610bb7565b91505060a083015184820360a0860152610da48282610ca1565b9150508091505092915050565b610dba81611002565b82525050565b610dc981611002565b82525050565b60006020820190508181036000830152610de98184610c2c565b905092915050565b600060a082019050610e066000830188610dc0565b610e136020830187610ba8565b8181036040830152610e258186610cda565b90508181036060830152610e398185610cda565b90508181036080830152610e4d8184610cda565b90509695505050505050565b6000610e63610e74565b9050610e6f8282611080565b919050565b6000604051905090565b600067ffffffffffffffff821115610e9957610e9861110f565b5b602082029050602081019050919050565b600067ffffffffffffffff821115610ec557610ec461110f565b5b610ece82611157565b9050602081019050919050565b6000819050602082019050919050565b6000819050602082019050919050565b600081519050919050565b600081519050919050565b600081519050919050565b6000602082019050919050565b6000602082019050919050565b600082825260208201905092915050565b600082825260208201905092915050565b600082825260208201905092915050565b600082825260208201905092915050565b6000610f8582611002565b9150610f9083611002565b9250827fffffffffffffffffffffffffffffffffffffffffffffffffffffffffffffffff03821115610fc557610fc46110b1565b5b828201905092915050565b6000610fdb82610fe2565b9050919050565b600073ffffffffffffffffffffffffffffffffffffffff82169050919050565b6000819050919050565b82818337600083830152505050565b60005b8381101561103957808201518184015260208101905061101e565b83811115611048576000848401525b50505050565b6000600282049050600182168061106657607f821691505b6020821081141561107a576110796110e0565b5b50919050565b61108982611157565b810181811067ffffffffffffffff821117156110a8576110a761110f565b5b80604052505050565b7f4e487b7100000000000000000000000000000000000000000000000000000000600052601160045260246000fd5b7f4e487b7100000000000000000000000000000000000000000000000000000000600052602260045260246000fd5b7f4e487b7100000000000000000000000000000000000000000000000000000000600052604160045260246000fd5b600080fd5b600080fd5b600080fd5b600080fd5b600080fd5b6000601f19601f8301169050919050565b61117181611002565b811461117c57600080fd5b5056fea26469706673582212206c1cf312ea362538dbf29ef0de24fa9206af7fa5f3c3e5398cbf5fde4cff95b764736f6c63430008070033",
  "linkReferences": {},
  "deployedLinkReferences": {}
}