{
  "_format": "hh-sol-artifact-1",
  "contractName": "Sub",
  "sourceName": "contracts/Sub.sol",
  "abi": [
    {
      "inputs": [
        {
          "internalType": "address payable",
          "name": "_to",
          "type": "address"
        },
        {
          "internalType": "uint256",
          "name": "balance",
          "type": "uint256"
        }
      ],
      "name": "SendMatic",
      "outputs": [],
      "stateMutability": "nonpayable",
      "type": "function"
    },
    {
      "inputs": [
        {
          "internalType": "address",
          "name": "_streamerPublicKey",
          "type": "address"
        },
        {
          "internalType": "string",
          "name": "_date",
          "type": "string"
        },
        {
          "internalType": "string",
          "name": "_andDate",
          "type": "string"
        }
      ],
      "name": "createSub",
      "outputs": [],
      "stateMutability": "payable",
      "type": "function"
    },
    {
      "inputs": [],
      "name": "getSubs",
      "outputs": [
        {
          "components": [
            {
              "internalType": "address",
              "name": "subPublicKey",
              "type": "address"
            },
            {
              "internalType": "address",
              "name": "streamerPublicKey",
              "type": "address"
            },
            {
              "internalType": "string",
              "name": "date",
              "type": "string"
            },
            {
              "internalType": "string",
              "name": "andDate",
              "type": "string"
            }
          ],
          "internalType": "struct Sub.LiveStreamSub[]",
          "name": "",
          "type": "tuple[]"
        }
      ],
      "stateMutability": "view",
      "type": "function"
    },
    {
      "inputs": [
        {
          "internalType": "uint256",
          "name": "",
          "type": "uint256"
        }
      ],
      "name": "subs",
      "outputs": [
        {
          "internalType": "address",
          "name": "subPublicKey",
          "type": "address"
        },
        {
          "internalType": "address",
          "name": "streamerPublicKey",
          "type": "address"
        },
        {
          "internalType": "string",
          "name": "date",
          "type": "string"
        },
        {
          "internalType": "string",
          "name": "andDate",
          "type": "string"
        }
      ],
      "stateMutability": "view",
      "type": "function"
    }
  ],
  "bytecode": "0x608060405234801561001057600080fd5b50610dda806100206000396000f3fe60806040526004361061003f5760003560e01c80632ae8bf7914610044578063b2f124a71461006d578063b8fb1bac14610089578063f8a64f9a146100b4575b600080fd5b34801561005057600080fd5b5061006b6004803603810190610066919061083d565b6100f4565b005b6100876004803603810190610082919061087d565b61013f565b005b34801561009557600080fd5b5061009e6102d8565b6040516100ab9190610b0b565b60405180910390f35b3480156100c057600080fd5b506100db60048036038101906100d69190610908565b610507565b6040516100eb9493929190610ab8565b60405180910390f35b8173ffffffffffffffffffffffffffffffffffffffff166108fc829081150290604051600060405180830381858888f1935050505015801561013a573d6000803e3d6000fd5b505050565b660aa87bee538000341461015257600080fd5b61015a610697565b33816000019073ffffffffffffffffffffffffffffffffffffffff16908173ffffffffffffffffffffffffffffffffffffffff168152505083816020019073ffffffffffffffffffffffffffffffffffffffff16908173ffffffffffffffffffffffffffffffffffffffff1681525050828160400181905250818160600181905250600081908060018154018082558091505060019003906000526020600020906004020160009091909190915060008201518160000160006101000a81548173ffffffffffffffffffffffffffffffffffffffff021916908373ffffffffffffffffffffffffffffffffffffffff16021790555060208201518160010160006101000a81548173ffffffffffffffffffffffffffffffffffffffff021916908373ffffffffffffffffffffffffffffffffffffffff16021790555060408201518160020190805190602001906102b29291906106eb565b5060608201518160030190805190602001906102cf9291906106eb565b50505050505050565b60606000805480602002602001604051908101604052809291908181526020016000905b828210156104fe57838290600052602060002090600402016040518060800160405290816000820160009054906101000a900473ffffffffffffffffffffffffffffffffffffffff1673ffffffffffffffffffffffffffffffffffffffff1673ffffffffffffffffffffffffffffffffffffffff1681526020016001820160009054906101000a900473ffffffffffffffffffffffffffffffffffffffff1673ffffffffffffffffffffffffffffffffffffffff1673ffffffffffffffffffffffffffffffffffffffff1681526020016002820180546103db90610c79565b80601f016020809104026020016040519081016040528092919081815260200182805461040790610c79565b80156104545780601f1061042957610100808354040283529160200191610454565b820191906000526020600020905b81548152906001019060200180831161043757829003601f168201915b5050505050815260200160038201805461046d90610c79565b80601f016020809104026020016040519081016040528092919081815260200182805461049990610c79565b80156104e65780601f106104bb576101008083540402835291602001916104e6565b820191906000526020600020905b8154815290600101906020018083116104c957829003601f168201915b505050505081525050815260200190600101906102fc565b50505050905090565b6000818154811061051757600080fd5b90600052602060002090600402016000915090508060000160009054906101000a900473ffffffffffffffffffffffffffffffffffffffff16908060010160009054906101000a900473ffffffffffffffffffffffffffffffffffffffff169080600201805461058690610c79565b80601f01602080910402602001604051908101604052809291908181526020018280546105b290610c79565b80156105ff5780601f106105d4576101008083540402835291602001916105ff565b820191906000526020600020905b8154815290600101906020018083116105e257829003601f168201915b50505050509080600301805461061490610c79565b80601f016020809104026020016040519081016040528092919081815260200182805461064090610c79565b801561068d5780601f106106625761010080835404028352916020019161068d565b820191906000526020600020905b81548152906001019060200180831161067057829003601f168201915b5050505050905084565b6040518060800160405280600073ffffffffffffffffffffffffffffffffffffffff168152602001600073ffffffffffffffffffffffffffffffffffffffff16815260200160608152602001606081525090565b8280546106f790610c79565b90600052602060002090601f0160209004810192826107195760008555610760565b82601f1061073257805160ff1916838001178555610760565b82800160010185558215610760579182015b8281111561075f578251825591602001919060010190610744565b5b50905061076d9190610771565b5090565b5b8082111561078a576000816000905550600101610772565b5090565b60006107a161079c84610b52565b610b2d565b9050828152602081018484840111156107bd576107bc610d3f565b5b6107c8848285610c37565b509392505050565b6000813590506107df81610d5f565b92915050565b6000813590506107f481610d76565b92915050565b600082601f83011261080f5761080e610d3a565b5b813561081f84826020860161078e565b91505092915050565b60008135905061083781610d8d565b92915050565b6000806040838503121561085457610853610d49565b5b6000610862858286016107e5565b925050602061087385828601610828565b9150509250929050565b60008060006060848603121561089657610895610d49565b5b60006108a4868287016107d0565b935050602084013567ffffffffffffffff8111156108c5576108c4610d44565b5b6108d1868287016107fa565b925050604084013567ffffffffffffffff8111156108f2576108f1610d44565b5b6108fe868287016107fa565b9150509250925092565b60006020828403121561091e5761091d610d49565b5b600061092c84828501610828565b91505092915050565b60006109418383610a4e565b905092915050565b61095281610be9565b82525050565b61096181610be9565b82525050565b600061097282610b93565b61097c8185610bb6565b93508360208202850161098e85610b83565b8060005b858110156109ca57848403895281516109ab8582610935565b94506109b683610ba9565b925060208a01995050600181019050610992565b50829750879550505050505092915050565b60006109e782610b9e565b6109f18185610bc7565b9350610a01818560208601610c46565b610a0a81610d4e565b840191505092915050565b6000610a2082610b9e565b610a2a8185610bd8565b9350610a3a818560208601610c46565b610a4381610d4e565b840191505092915050565b6000608083016000830151610a666000860182610949565b506020830151610a796020860182610949565b5060408301518482036040860152610a9182826109dc565b91505060608301518482036060860152610aab82826109dc565b9150508091505092915050565b6000608082019050610acd6000830187610958565b610ada6020830186610958565b8181036040830152610aec8185610a15565b90508181036060830152610b008184610a15565b905095945050505050565b60006020820190508181036000830152610b258184610967565b905092915050565b6000610b37610b48565b9050610b438282610cab565b919050565b6000604051905090565b600067ffffffffffffffff821115610b6d57610b6c610d0b565b5b610b7682610d4e565b9050602081019050919050565b6000819050602082019050919050565b600081519050919050565b600081519050919050565b6000602082019050919050565b600082825260208201905092915050565b600082825260208201905092915050565b600082825260208201905092915050565b6000610bf482610c0d565b9050919050565b6000610c0682610c0d565b9050919050565b600073ffffffffffffffffffffffffffffffffffffffff82169050919050565b6000819050919050565b82818337600083830152505050565b60005b83811015610c64578082015181840152602081019050610c49565b83811115610c73576000848401525b50505050565b60006002820490506001821680610c9157607f821691505b60208210811415610ca557610ca4610cdc565b5b50919050565b610cb482610d4e565b810181811067ffffffffffffffff82111715610cd357610cd2610d0b565b5b80604052505050565b7f4e487b7100000000000000000000000000000000000000000000000000000000600052602260045260246000fd5b7f4e487b7100000000000000000000000000000000000000000000000000000000600052604160045260246000fd5b600080fd5b600080fd5b600080fd5b600080fd5b6000601f19601f8301169050919050565b610d6881610be9565b8114610d7357600080fd5b50565b610d7f81610bfb565b8114610d8a57600080fd5b50565b610d9681610c2d565b8114610da157600080fd5b5056fea26469706673582212205ec683e18b5ad15a74f330367cf235630d20f89e949f86eebc477d5a48636df264736f6c63430008070033",
  "linkReferences": {},
  "deployedLinkReferences": {}
}