{
  "_format": "hh-sol-artifact-1",
  "contractName": "User",
  "sourceName": "contracts/User.sol",
  "abi": [
    {
      "inputs": [
        {
          "internalType": "string",
          "name": "_userName",
          "type": "string"
        }
      ],
      "name": "createUser",
      "outputs": [],
      "stateMutability": "nonpayable",
      "type": "function"
    },
    {
      "inputs": [],
      "name": "getUser",
      "outputs": [
        {
          "components": [
            {
              "internalType": "address",
              "name": "publicKey",
              "type": "address"
            },
            {
              "internalType": "string",
              "name": "userName",
              "type": "string"
            }
          ],
          "internalType": "struct User.MyUser[]",
          "name": "",
          "type": "tuple[]"
        }
      ],
      "stateMutability": "view",
      "type": "function"
    },
    {
      "inputs": [
        {
          "internalType": "uint256",
          "name": "",
          "type": "uint256"
        }
      ],
      "name": "users",
      "outputs": [
        {
          "internalType": "address",
          "name": "publicKey",
          "type": "address"
        },
        {
          "internalType": "string",
          "name": "userName",
          "type": "string"
        }
      ],
      "stateMutability": "view",
      "type": "function"
    }
  ],
  "bytecode": "0x608060405234801561001057600080fd5b50610996806100206000396000f3fe608060405234801561001057600080fd5b50600436106100415760003560e01c8063365b98b214610046578063507ffba514610077578063832880e714610093575b600080fd5b610060600480360381019061005b9190610554565b6100b1565b60405161006e9291906106d7565b60405180910390f35b610091600480360381019061008c919061050b565b61018d565b005b61009b61026c565b6040516100a89190610707565b60405180910390f35b600081815481106100c157600080fd5b90600052602060002090600202016000915090508060000160009054906101000a900473ffffffffffffffffffffffffffffffffffffffff169080600101805461010a90610863565b80601f016020809104026020016040519081016040528092919081815260200182805461013690610863565b80156101835780601f1061015857610100808354040283529160200191610183565b820191906000526020600020905b81548152906001019060200180831161016657829003601f168201915b5050505050905082565b6101956103b3565b33816000019073ffffffffffffffffffffffffffffffffffffffff16908173ffffffffffffffffffffffffffffffffffffffff1681525050818160200181905250600081908060018154018082558091505060019003906000526020600020906002020160009091909190915060008201518160000160006101000a81548173ffffffffffffffffffffffffffffffffffffffff021916908373ffffffffffffffffffffffffffffffffffffffff16021790555060208201518160010190805190602001906102659291906103e3565b5050505050565b60606000805480602002602001604051908101604052809291908181526020016000905b828210156103aa57838290600052602060002090600202016040518060400160405290816000820160009054906101000a900473ffffffffffffffffffffffffffffffffffffffff1673ffffffffffffffffffffffffffffffffffffffff1673ffffffffffffffffffffffffffffffffffffffff16815260200160018201805461031990610863565b80601f016020809104026020016040519081016040528092919081815260200182805461034590610863565b80156103925780601f1061036757610100808354040283529160200191610392565b820191906000526020600020905b81548152906001019060200180831161037557829003601f168201915b50505050508152505081526020019060010190610290565b50505050905090565b6040518060400160405280600073ffffffffffffffffffffffffffffffffffffffff168152602001606081525090565b8280546103ef90610863565b90600052602060002090601f0160209004810192826104115760008555610458565b82601f1061042a57805160ff1916838001178555610458565b82800160010185558215610458579182015b8281111561045757825182559160200191906001019061043c565b5b5090506104659190610469565b5090565b5b8082111561048257600081600090555060010161046a565b5090565b60006104996104948461074e565b610729565b9050828152602081018484840111156104b5576104b4610929565b5b6104c0848285610821565b509392505050565b600082601f8301126104dd576104dc610924565b5b81356104ed848260208601610486565b91505092915050565b60008135905061050581610949565b92915050565b60006020828403121561052157610520610933565b5b600082013567ffffffffffffffff81111561053f5761053e61092e565b5b61054b848285016104c8565b91505092915050565b60006020828403121561056a57610569610933565b5b6000610578848285016104f6565b91505092915050565b600061058d838361069a565b905092915050565b61059e816107e5565b82525050565b6105ad816107e5565b82525050565b60006105be8261078f565b6105c881856107b2565b9350836020820285016105da8561077f565b8060005b8581101561061657848403895281516105f78582610581565b9450610602836107a5565b925060208a019950506001810190506105de565b50829750879550505050505092915050565b60006106338261079a565b61063d81856107c3565b935061064d818560208601610830565b61065681610938565b840191505092915050565b600061066c8261079a565b61067681856107d4565b9350610686818560208601610830565b61068f81610938565b840191505092915050565b60006040830160008301516106b26000860182610595565b50602083015184820360208601526106ca8282610628565b9150508091505092915050565b60006040820190506106ec60008301856105a4565b81810360208301526106fe8184610661565b90509392505050565b6000602082019050818103600083015261072181846105b3565b905092915050565b6000610733610744565b905061073f8282610895565b919050565b6000604051905090565b600067ffffffffffffffff821115610769576107686108f5565b5b61077282610938565b9050602081019050919050565b6000819050602082019050919050565b600081519050919050565b600081519050919050565b6000602082019050919050565b600082825260208201905092915050565b600082825260208201905092915050565b600082825260208201905092915050565b60006107f0826107f7565b9050919050565b600073ffffffffffffffffffffffffffffffffffffffff82169050919050565b6000819050919050565b82818337600083830152505050565b60005b8381101561084e578082015181840152602081019050610833565b8381111561085d576000848401525b50505050565b6000600282049050600182168061087b57607f821691505b6020821081141561088f5761088e6108c6565b5b50919050565b61089e82610938565b810181811067ffffffffffffffff821117156108bd576108bc6108f5565b5b80604052505050565b7f4e487b7100000000000000000000000000000000000000000000000000000000600052602260045260246000fd5b7f4e487b7100000000000000000000000000000000000000000000000000000000600052604160045260246000fd5b600080fd5b600080fd5b600080fd5b600080fd5b6000601f19601f8301169050919050565b61095281610817565b811461095d57600080fd5b5056fea2646970667358221220d43121ff58b1f225e5082f8573953e98c6325ef3199ae33eb17c5a928855d4e964736f6c63430008070033",
  "linkReferences": {},
  "deployedLinkReferences": {}
}