{
  "_format": "hh-sol-artifact-1",
  "contractName": "LiveStream",
  "sourceName": "contracts/LiveStream.sol",
  "abi": [
    {
      "inputs": [
        {
          "internalType": "string",
          "name": "_userName",
          "type": "string"
        },
        {
          "internalType": "string",
          "name": "_id",
          "type": "string"
        },
        {
          "internalType": "string",
          "name": "_category",
          "type": "string"
        },
        {
          "internalType": "string",
          "name": "_link",
          "type": "string"
        },
        {
          "internalType": "bool",
          "name": "_subOnly",
          "type": "bool"
        }
      ],
      "name": "createLiveStream",
      "outputs": [],
      "stateMutability": "nonpayable",
      "type": "function"
    },
    {
      "inputs": [],
      "name": "getLiveStream",
      "outputs": [
        {
          "components": [
            {
              "internalType": "string",
              "name": "id",
              "type": "string"
            },
            {
              "internalType": "address",
              "name": "publicKey",
              "type": "address"
            },
            {
              "internalType": "string",
              "name": "userName",
              "type": "string"
            },
            {
              "internalType": "string",
              "name": "category",
              "type": "string"
            },
            {
              "internalType": "string",
              "name": "link",
              "type": "string"
            },
            {
              "internalType": "bool",
              "name": "subOnly",
              "type": "bool"
            }
          ],
          "internalType": "struct LiveStream.UserLiveStream[]",
          "name": "",
          "type": "tuple[]"
        }
      ],
      "stateMutability": "view",
      "type": "function"
    },
    {
      "inputs": [
        {
          "internalType": "uint256",
          "name": "",
          "type": "uint256"
        }
      ],
      "name": "streams",
      "outputs": [
        {
          "internalType": "string",
          "name": "id",
          "type": "string"
        },
        {
          "internalType": "address",
          "name": "publicKey",
          "type": "address"
        },
        {
          "internalType": "string",
          "name": "userName",
          "type": "string"
        },
        {
          "internalType": "string",
          "name": "category",
          "type": "string"
        },
        {
          "internalType": "string",
          "name": "link",
          "type": "string"
        },
        {
          "internalType": "bool",
          "name": "subOnly",
          "type": "bool"
        }
      ],
      "stateMutability": "view",
      "type": "function"
    }
  ],
  "bytecode": "0x608060405234801561001057600080fd5b50610f92806100206000396000f3fe608060405234801561001057600080fd5b50600436106100415760003560e01c8063229d5c1a1461004657806364d60d9114610062578063e06ff64214610097575b600080fd5b610060600480360381019061005b9190610976565b6100b5565b005b61007c60048036038101906100779190610a61565b61023a565b60405161008e96959493929190610c85565b60405180910390f35b61009f6104d3565b6040516100ac9190610c63565b60405180910390f35b6100bd6107eb565b33816020019073ffffffffffffffffffffffffffffffffffffffff16908173ffffffffffffffffffffffffffffffffffffffff1681525050858160400181905250848160000181905250838160600181905250828160800181905250818160a001901515908115158152505060008190806001815401808255809150506001900390600052602060002090600602016000909190919091506000820151816000019080519060200190610171929190610839565b5060208201518160010160006101000a81548173ffffffffffffffffffffffffffffffffffffffff021916908373ffffffffffffffffffffffffffffffffffffffff16021790555060408201518160020190805190602001906101d5929190610839565b5060608201518160030190805190602001906101f2929190610839565b50608082015181600401908051906020019061020f929190610839565b5060a08201518160050160006101000a81548160ff0219169083151502179055505050505050505050565b6000818154811061024a57600080fd5b906000526020600020906006020160009150905080600001805461026d90610e48565b80601f016020809104026020016040519081016040528092919081815260200182805461029990610e48565b80156102e65780601f106102bb576101008083540402835291602001916102e6565b820191906000526020600020905b8154815290600101906020018083116102c957829003601f168201915b5050505050908060010160009054906101000a900473ffffffffffffffffffffffffffffffffffffffff169080600201805461032190610e48565b80601f016020809104026020016040519081016040528092919081815260200182805461034d90610e48565b801561039a5780601f1061036f5761010080835404028352916020019161039a565b820191906000526020600020905b81548152906001019060200180831161037d57829003601f168201915b5050505050908060030180546103af90610e48565b80601f01602080910402602001604051908101604052809291908181526020018280546103db90610e48565b80156104285780601f106103fd57610100808354040283529160200191610428565b820191906000526020600020905b81548152906001019060200180831161040b57829003601f168201915b50505050509080600401805461043d90610e48565b80601f016020809104026020016040519081016040528092919081815260200182805461046990610e48565b80156104b65780601f1061048b576101008083540402835291602001916104b6565b820191906000526020600020905b81548152906001019060200180831161049957829003601f168201915b5050505050908060050160009054906101000a900460ff16905086565b60606000805480602002602001604051908101604052809291908181526020016000905b828210156107e257838290600052602060002090600602016040518060c001604052908160008201805461052a90610e48565b80601f016020809104026020016040519081016040528092919081815260200182805461055690610e48565b80156105a35780601f10610578576101008083540402835291602001916105a3565b820191906000526020600020905b81548152906001019060200180831161058657829003601f168201915b505050505081526020016001820160009054906101000a900473ffffffffffffffffffffffffffffffffffffffff1673ffffffffffffffffffffffffffffffffffffffff1673ffffffffffffffffffffffffffffffffffffffff16815260200160028201805461061290610e48565b80601f016020809104026020016040519081016040528092919081815260200182805461063e90610e48565b801561068b5780601f106106605761010080835404028352916020019161068b565b820191906000526020600020905b81548152906001019060200180831161066e57829003601f168201915b505050505081526020016003820180546106a490610e48565b80601f01602080910402602001604051908101604052809291908181526020018280546106d090610e48565b801561071d5780601f106106f25761010080835404028352916020019161071d565b820191906000526020600020905b81548152906001019060200180831161070057829003601f168201915b5050505050815260200160048201805461073690610e48565b80601f016020809104026020016040519081016040528092919081815260200182805461076290610e48565b80156107af5780601f10610784576101008083540402835291602001916107af565b820191906000526020600020905b81548152906001019060200180831161079257829003601f168201915b505050505081526020016005820160009054906101000a900460ff161515151581525050815260200190600101906104f7565b50505050905090565b6040518060c0016040528060608152602001600073ffffffffffffffffffffffffffffffffffffffff1681526020016060815260200160608152602001606081526020016000151581525090565b82805461084590610e48565b90600052602060002090601f01602090048101928261086757600085556108ae565b82601f1061088057805160ff19168380011785556108ae565b828001600101855582156108ae579182015b828111156108ad578251825591602001919060010190610892565b5b5090506108bb91906108bf565b5090565b5b808211156108d85760008160009055506001016108c0565b5090565b60006108ef6108ea84610d27565b610d02565b90508281526020810184848401111561090b5761090a610f0e565b5b610916848285610e06565b509392505050565b60008135905061092d81610f2e565b92915050565b600082601f83011261094857610947610f09565b5b81356109588482602086016108dc565b91505092915050565b60008135905061097081610f45565b92915050565b600080600080600060a0868803121561099257610991610f18565b5b600086013567ffffffffffffffff8111156109b0576109af610f13565b5b6109bc88828901610933565b955050602086013567ffffffffffffffff8111156109dd576109dc610f13565b5b6109e988828901610933565b945050604086013567ffffffffffffffff811115610a0a57610a09610f13565b5b610a1688828901610933565b935050606086013567ffffffffffffffff811115610a3757610a36610f13565b5b610a4388828901610933565b9250506080610a548882890161091e565b9150509295509295909350565b600060208284031215610a7757610a76610f18565b5b6000610a8584828501610961565b91505092915050565b6000610a9a8383610bc5565b905092915050565b610aab81610dbe565b82525050565b610aba81610dbe565b82525050565b6000610acb82610d68565b610ad58185610d8b565b935083602082028501610ae785610d58565b8060005b85811015610b235784840389528151610b048582610a8e565b9450610b0f83610d7e565b925060208a01995050600181019050610aeb565b50829750879550505050505092915050565b610b3e81610dd0565b82525050565b610b4d81610dd0565b82525050565b6000610b5e82610d73565b610b688185610d9c565b9350610b78818560208601610e15565b610b8181610f1d565b840191505092915050565b6000610b9782610d73565b610ba18185610dad565b9350610bb1818560208601610e15565b610bba81610f1d565b840191505092915050565b600060c0830160008301518482036000860152610be28282610b53565b9150506020830151610bf76020860182610aa2565b5060408301518482036040860152610c0f8282610b53565b91505060608301518482036060860152610c298282610b53565b91505060808301518482036080860152610c438282610b53565b91505060a0830151610c5860a0860182610b35565b508091505092915050565b60006020820190508181036000830152610c7d8184610ac0565b905092915050565b600060c0820190508181036000830152610c9f8189610b8c565b9050610cae6020830188610ab1565b8181036040830152610cc08187610b8c565b90508181036060830152610cd48186610b8c565b90508181036080830152610ce88185610b8c565b9050610cf760a0830184610b44565b979650505050505050565b6000610d0c610d1d565b9050610d188282610e7a565b919050565b6000604051905090565b600067ffffffffffffffff821115610d4257610d41610eda565b5b610d4b82610f1d565b9050602081019050919050565b6000819050602082019050919050565b600081519050919050565b600081519050919050565b6000602082019050919050565b600082825260208201905092915050565b600082825260208201905092915050565b600082825260208201905092915050565b6000610dc982610ddc565b9050919050565b60008115159050919050565b600073ffffffffffffffffffffffffffffffffffffffff82169050919050565b6000819050919050565b82818337600083830152505050565b60005b83811015610e33578082015181840152602081019050610e18565b83811115610e42576000848401525b50505050565b60006002820490506001821680610e6057607f821691505b60208210811415610e7457610e73610eab565b5b50919050565b610e8382610f1d565b810181811067ffffffffffffffff82111715610ea257610ea1610eda565b5b80604052505050565b7f4e487b7100000000000000000000000000000000000000000000000000000000600052602260045260246000fd5b7f4e487b7100000000000000000000000000000000000000000000000000000000600052604160045260246000fd5b600080fd5b600080fd5b600080fd5b600080fd5b6000601f19601f8301169050919050565b610f3781610dd0565b8114610f4257600080fd5b50565b610f4e81610dfc565b8114610f5957600080fd5b5056fea2646970667358221220f97fc71d7b4dfa1ce01067524ef3ee5afc0e8d5663373869a3bcd199bd0f41bf64736f6c63430008070033",
  "linkReferences": {},
  "deployedLinkReferences": {}
}