{
  "_format": "hh-sol-artifact-1",
  "contractName": "LiveStream",
  "sourceName": "contracts/LiveStream.sol",
  "abi": [
    {
      "inputs": [
        {
          "internalType": "string",
          "name": "_userName",
          "type": "string"
        },
        {
          "internalType": "string",
          "name": "_id",
          "type": "string"
        },
        {
          "internalType": "string",
          "name": "_category",
          "type": "string"
        },
        {
          "internalType": "string",
          "name": "_link",
          "type": "string"
        }
      ],
      "name": "createLiveStream",
      "outputs": [],
      "stateMutability": "nonpayable",
      "type": "function"
    },
    {
      "inputs": [],
      "name": "getLiveStream",
      "outputs": [
        {
          "components": [
            {
              "internalType": "string",
              "name": "id",
              "type": "string"
            },
            {
              "internalType": "address",
              "name": "publicKey",
              "type": "address"
            },
            {
              "internalType": "string",
              "name": "userName",
              "type": "string"
            },
            {
              "internalType": "string",
              "name": "category",
              "type": "string"
            },
            {
              "internalType": "string",
              "name": "link",
              "type": "string"
            }
          ],
          "internalType": "struct LiveStream.UserLiveStream[]",
          "name": "",
          "type": "tuple[]"
        }
      ],
      "stateMutability": "view",
      "type": "function"
    },
    {
      "inputs": [
        {
          "internalType": "uint256",
          "name": "",
          "type": "uint256"
        }
      ],
      "name": "streams",
      "outputs": [
        {
          "internalType": "string",
          "name": "id",
          "type": "string"
        },
        {
          "internalType": "address",
          "name": "publicKey",
          "type": "address"
        },
        {
          "internalType": "string",
          "name": "userName",
          "type": "string"
        },
        {
          "internalType": "string",
          "name": "category",
          "type": "string"
        },
        {
          "internalType": "string",
          "name": "link",
          "type": "string"
        }
      ],
      "stateMutability": "view",
      "type": "function"
    }
  ],
  "bytecode": "0x608060405234801561001057600080fd5b50610e9e806100206000396000f3fe608060405234801561001057600080fd5b50600436106100415760003560e01c806364d60d9114610046578063e06ff6421461007a578063f51b787314610098575b600080fd5b610060600480360381019061005b91906109cf565b6100b4565b604051610071959493929190610bc2565b60405180910390f35b61008261033a565b60405161008f9190610ba0565b60405180910390f35b6100b260048036038101906100ad91906108f8565b610637565b005b600081815481106100c457600080fd5b90600052602060002090600502016000915090508060000180546100e790610d6b565b80601f016020809104026020016040519081016040528092919081815260200182805461011390610d6b565b80156101605780601f1061013557610100808354040283529160200191610160565b820191906000526020600020905b81548152906001019060200180831161014357829003601f168201915b5050505050908060010160009054906101000a900473ffffffffffffffffffffffffffffffffffffffff169080600201805461019b90610d6b565b80601f01602080910402602001604051908101604052809291908181526020018280546101c790610d6b565b80156102145780601f106101e957610100808354040283529160200191610214565b820191906000526020600020905b8154815290600101906020018083116101f757829003601f168201915b50505050509080600301805461022990610d6b565b80601f016020809104026020016040519081016040528092919081815260200182805461025590610d6b565b80156102a25780601f10610277576101008083540402835291602001916102a2565b820191906000526020600020905b81548152906001019060200180831161028557829003601f168201915b5050505050908060040180546102b790610d6b565b80601f01602080910402602001604051908101604052809291908181526020018280546102e390610d6b565b80156103305780601f1061030557610100808354040283529160200191610330565b820191906000526020600020905b81548152906001019060200180831161031357829003601f168201915b5050505050905085565b60606000805480602002602001604051908101604052809291908181526020016000905b8282101561062e57838290600052602060002090600502016040518060a001604052908160008201805461039190610d6b565b80601f01602080910402602001604051908101604052809291908181526020018280546103bd90610d6b565b801561040a5780601f106103df5761010080835404028352916020019161040a565b820191906000526020600020905b8154815290600101906020018083116103ed57829003601f168201915b505050505081526020016001820160009054906101000a900473ffffffffffffffffffffffffffffffffffffffff1673ffffffffffffffffffffffffffffffffffffffff1673ffffffffffffffffffffffffffffffffffffffff16815260200160028201805461047990610d6b565b80601f01602080910402602001604051908101604052809291908181526020018280546104a590610d6b565b80156104f25780601f106104c7576101008083540402835291602001916104f2565b820191906000526020600020905b8154815290600101906020018083116104d557829003601f168201915b5050505050815260200160038201805461050b90610d6b565b80601f016020809104026020016040519081016040528092919081815260200182805461053790610d6b565b80156105845780601f1061055957610100808354040283529160200191610584565b820191906000526020600020905b81548152906001019060200180831161056757829003601f168201915b5050505050815260200160048201805461059d90610d6b565b80601f01602080910402602001604051908101604052809291908181526020018280546105c990610d6b565b80156106165780601f106105eb57610100808354040283529160200191610616565b820191906000526020600020905b8154815290600101906020018083116105f957829003601f168201915b5050505050815250508152602001906001019061035e565b50505050905090565b61063f61078b565b33816020019073ffffffffffffffffffffffffffffffffffffffff16908173ffffffffffffffffffffffffffffffffffffffff1681525050848160400181905250838160000181905250828160600181905250818160800181905250600081908060018154018082558091505060019003906000526020600020906005020160009091909190915060008201518160000190805190602001906106e39291906107d0565b5060208201518160010160006101000a81548173ffffffffffffffffffffffffffffffffffffffff021916908373ffffffffffffffffffffffffffffffffffffffff16021790555060408201518160020190805190602001906107479291906107d0565b5060608201518160030190805190602001906107649291906107d0565b5060808201518160040190805190602001906107819291906107d0565b5050505050505050565b6040518060a0016040528060608152602001600073ffffffffffffffffffffffffffffffffffffffff1681526020016060815260200160608152602001606081525090565b8280546107dc90610d6b565b90600052602060002090601f0160209004810192826107fe5760008555610845565b82601f1061081757805160ff1916838001178555610845565b82800160010185558215610845579182015b82811115610844578251825591602001919060010190610829565b5b5090506108529190610856565b5090565b5b8082111561086f576000816000905550600101610857565b5090565b600061088661088184610c56565b610c31565b9050828152602081018484840111156108a2576108a1610e31565b5b6108ad848285610d29565b509392505050565b600082601f8301126108ca576108c9610e2c565b5b81356108da848260208601610873565b91505092915050565b6000813590506108f281610e51565b92915050565b6000806000806080858703121561091257610911610e3b565b5b600085013567ffffffffffffffff8111156109305761092f610e36565b5b61093c878288016108b5565b945050602085013567ffffffffffffffff81111561095d5761095c610e36565b5b610969878288016108b5565b935050604085013567ffffffffffffffff81111561098a57610989610e36565b5b610996878288016108b5565b925050606085013567ffffffffffffffff8111156109b7576109b6610e36565b5b6109c3878288016108b5565b91505092959194509250565b6000602082840312156109e5576109e4610e3b565b5b60006109f3848285016108e3565b91505092915050565b6000610a088383610b15565b905092915050565b610a1981610ced565b82525050565b610a2881610ced565b82525050565b6000610a3982610c97565b610a438185610cba565b935083602082028501610a5585610c87565b8060005b85811015610a915784840389528151610a7285826109fc565b9450610a7d83610cad565b925060208a01995050600181019050610a59565b50829750879550505050505092915050565b6000610aae82610ca2565b610ab88185610ccb565b9350610ac8818560208601610d38565b610ad181610e40565b840191505092915050565b6000610ae782610ca2565b610af18185610cdc565b9350610b01818560208601610d38565b610b0a81610e40565b840191505092915050565b600060a0830160008301518482036000860152610b328282610aa3565b9150506020830151610b476020860182610a10565b5060408301518482036040860152610b5f8282610aa3565b91505060608301518482036060860152610b798282610aa3565b91505060808301518482036080860152610b938282610aa3565b9150508091505092915050565b60006020820190508181036000830152610bba8184610a2e565b905092915050565b600060a0820190508181036000830152610bdc8188610adc565b9050610beb6020830187610a1f565b8181036040830152610bfd8186610adc565b90508181036060830152610c118185610adc565b90508181036080830152610c258184610adc565b90509695505050505050565b6000610c3b610c4c565b9050610c478282610d9d565b919050565b6000604051905090565b600067ffffffffffffffff821115610c7157610c70610dfd565b5b610c7a82610e40565b9050602081019050919050565b6000819050602082019050919050565b600081519050919050565b600081519050919050565b6000602082019050919050565b600082825260208201905092915050565b600082825260208201905092915050565b600082825260208201905092915050565b6000610cf882610cff565b9050919050565b600073ffffffffffffffffffffffffffffffffffffffff82169050919050565b6000819050919050565b82818337600083830152505050565b60005b83811015610d56578082015181840152602081019050610d3b565b83811115610d65576000848401525b50505050565b60006002820490506001821680610d8357607f821691505b60208210811415610d9757610d96610dce565b5b50919050565b610da682610e40565b810181811067ffffffffffffffff82111715610dc557610dc4610dfd565b5b80604052505050565b7f4e487b7100000000000000000000000000000000000000000000000000000000600052602260045260246000fd5b7f4e487b7100000000000000000000000000000000000000000000000000000000600052604160045260246000fd5b600080fd5b600080fd5b600080fd5b600080fd5b6000601f19601f8301169050919050565b610e5a81610d1f565b8114610e6557600080fd5b5056fea2646970667358221220668922331bb2e29bd54b05a1a7edc9d4b8e19b344f68b859856a7476be07ac0464736f6c63430008070033",
  "linkReferences": {},
  "deployedLinkReferences": {}
}